:020000040800F2
:10000000780800208D010008FD320008B530000896
:1000100000000000000000000000000000000000E0
:100020000000000000000000000000000333000892
:100030000000000000000000013300080533000844
:100040009F010008000000009F0100089F010008B8
:100050009F0100089F0100089F0100089F01000800
:1000600000000000B90D0008C90D00089F0100083C
:10007000C50C0008913300089F0100080000000033
:100080009F01000800000000000000009F01000820
:10009000000000009F0100089F0100089F01000868
:1000A000000000009F01000800000000BD3A0008A9
:1000B00000F002F800F03EF80CA030C80838241810
:1000C0002D18A246671EAB4654465D46AC4201D190
:1000D00000F030F87E460F3E0FCCB6460126334284
:1000E00000D0FB1AA246AB4633431847F83D000048
:1000F000183E0000103A02D378C878C1FAD85207E7
:1001000001D330C830C101D504680C6070470000CD
:100110000023002400250026103A01D378C1FBD823
:10012000520700D330C100D50B6070471FB51FBD0B
:1001300010B510BD00F064FD1146FFF7F7FF03F0A6
:100140003DFD00F07CFD03B4FFF7F2FF03BC00F0BF
:10015000B1FD000070B505460C46164602E00FCC16
:100160000FC5103E102EFAD2082E02D303CC03C5C1
:10017000083E042E07D301CC01C5361F03E02178C9
:100180002970641C6D1C761EF9D270BD074880472B
:1001900007480047FEE7FEE7FEE7FEE7FEE7FEE76B
:1001A00004480549054A064B704700008D33000896
:1001B000B1000008780200207808002078040020B0
:1001C00078040020FEB5054610460C46184373D04F
:1001D000AE468C460020AD1A01469C4167D3664668
:1001E000002701243D46B61A9D4102D313463A46E4
:1001F0002124654676462F04360C3E432D0CB61A54
:100200009D4104D3150C1B042B4312041034654686
:1002100076462F06360A3E432D0AB61A9D4104D370
:10022000150E1B022B4312020834654676462F0733
:1002300036093E432D09B61A9D4104D3150F1B0103
:100240002B431201241D65467646AF07B6083E4390
:10025000AD08B61A9D4104D3950F9B002B43920025
:10026000A41C65467646EF0776083E436D08B61A2D
:100270009D411AD392185B41641C16E00018764623
:1002800065464941B71A9D410191009009D36046E6
:10029000B11A98418E468446009801990025401C69
:1002A0006941DD0752082A435B08641EE6D57246A1
:1002B000634603B0F0BDFFE700200146C046C046DC
:1002C0002A462346F5E7F8B5042A2CD3830712D033
:1002D0000B78491C0370401C521E83070BD00B780F
:1002E000491C0370401C521E830704D00B78491C24
:1002F0000370401C521E8B079B0F05D0C91ADF00EC
:100300002023DE1B08C90AE0FFF724FFF8BD1D46C5
:1003100008C9FD401C46B4402C4310C0121F042ADB
:10032000F5D2F308C91A521EF0D40B78491C037099
:10033000401C521EEAD40B78491C0370401C012A51
:10034000E4D409780170F8BD01E004C0091F042954
:10035000FBD28B0701D50280801CC90700D0027038
:10036000704700290BD0C30702D00270401C491E01
:10037000022904D3830702D50280801C891EE3E78B
:100380000022EEE70022DFE7002203098B422CD394
:10039000030A8B4211D300239C464EE003460B43D5
:1003A0003CD4002243088B4231D303098B421CD337
:1003B000030A8B4201D394463FE0C3098B4201D329
:1003C000CB01C01A524183098B4201D38B01C01A61
:1003D000524143098B4201D34B01C01A52410309D8
:1003E0008B4201D30B01C01A5241C3088B4201D387
:1003F000CB00C01A524183088B4201D38B00C01A34
:10040000524143088B4201D34B00C01A5241411A5A
:1004100000D201465241104670475DE0CA0F00D03D
:100420004942031000D34042534000229C46030936
:100430008B422DD3030A8B4212D3FC22890112BABC
:10044000030A8B420CD3890192118B4208D3890194
:1004500092118B4204D389013AD0921100E08909AC
:10046000C3098B4201D3CB01C01A524183098B428D
:1004700001D38B01C01A524143098B4201D34B0176
:10048000C01A524103098B4201D30B01C01A5241D9
:10049000C3088B4201D3CB00C01A524183088B4260
:1004A00001D38B00C01A5241D9D243088B4201D3E9
:1004B0004B00C01A5241411A00D2014663465241D4
:1004C0005B10104601D34042002B00D549427047D3
:1004D00063465B1000D3404201B50020C046C046D1
:1004E00002BD7047704770470246C80FC00781437E
:1004F0004B0030B54B405B009B0D20D01923DB0631
:10050000C91801231B05994220DB0324A4070425F5
:100510001346AB400BD3002B04D1EB0613409B00DA
:10052000E34204D401246407002312195941FF2334
:100530001B0599420BD2C9000143500F09E0CB02C1
:1005400004D501430803024305D0054830BDFF210F
:10055000C905084330BD084607210905884330BD59
:100560000000C07FF0B50C46871A9C410D46861AE4
:100570009D4103D2C01BA141D21963410D0D1F0D36
:10058000C94EEC1BAE435CD07F057F0D0026002FCB
:1005900051D02D05AC46A943DD020123ED0A1B0510
:1005A0001D4320231B1B24D41746E74038187141F4
:1005B0002F46E740CC199D402818314661410C0D6B
:1005C00027D161449A4013D50023401C5941520061
:1005D0000ED14008400001224B005205D34207D300
:1005E00005204007C14201D5B04900E0B04930467E
:1005F000F0BD6B00002A00D001229A181F23203C76
:100600001B1B01D5002302E0E540281871410C0DA9
:10061000D7D0012424050919C407CD07400849088B
:10062000E40F28436144002CD5D00024401C6141D4
:100630009A40D0D1CDE76A05520DD9D1C90FC9076B
:10064000D5E79C4D4E00002801D0012400E0002495
:1006500034195F00002A01D0012600E00026BE19EF
:10066000954FAC420CD8AE420AD8B44206D0012510
:100670006D05EC42BCD010461946F0BD9942FCD045
:1006800000203946F0BDF0B51FB40C460F46811A64
:100690009F412546861A9D4106D20125ED076F40F0
:1006A000401ABC4152187B41210D1E0D8D1BAC46DA
:1006B0007D4D8D437ED075056D0D7CD00D05AE460C
:1006C000AC431B031B0B794D52429D4120236646D0
:1006D0009B1B14D31746F74038180026009074412E
:1006E00060462F460741E41900989D40281866414E
:1006F00016D4714671189A4025D5012320E093182D
:100700002A466A415200002B00D0521C1E23203E74
:100710009B1B002B61DD3541EE1728186641E8D59B
:10072000001876415B1C9A4000D3401C4B05F3181F
:100730001524E34010D3002B52D071467118D30F0B
:10074000C01802D3491C05B0F0BD0123DB079A4253
:10075000F9D140084000F6E701225205B21801D154
:10076000002853D00123CC0ADB029943891E002ABA
:1007700008D1020C03D0020C0004103902E002463A
:10078000002020390023550B05D112020823550BF8
:1007900001D152010D23550C01D112011B1DD50CA5
:1007A00001D192009B1C150D01D152005B1C20252C
:1007B000EE1A01E02CE022E00546F5401543984092
:1007C000CA1AE10769181305C918002ABBDA032001
:1007D00040070818C10FC9070FE071466118B2E75A
:1007E000F10740080843711071444A000CD00123FE
:1007F0005B059A42A7D2C90FC9070020A3E74905A4
:10080000490D26D1002001E00028F4D100219AE70B
:10081000284D6600002801D0012100E00021711858
:100820005F00002A01D0012600E00026BE19224FF9
:10083000A94210D8AE420ED8B14208D001256D05AC
:10084000E94206D01946A802414010467BE79C4287
:1008500001D0214677E70020394674E710B50C46F1
:100860005C4005D50124E4076340FFF70CFF10BD91
:10087000FFF778FE10BD30B40C465C4004D501246F
:10088000E407634030BC6DE630BCFCE670B5012483
:10089000E40761400D465D4002D4FFF763FE70BD82
:1008A0006340FFF7F0FE70BDFF0700000000F0FF9F
:1008B0000000F07F0000E0FF0000F87F1F22030C23
:1008C00002D10F22000402D0030E03D004E0002066
:1008D000014670470002083A030F01D10001121FC0
:1008E000830F01D18000921E002801DB4000521EC0
:1008F000120551184205C012411810467047C10F29
:10090000C90700D04042012292071143D6E70121D6
:100910008907D3E7F0B58B4C0F09254689B0BD4355
:100920007BD01D092646AE43FAD00E465E402740D6
:10093000F60F3E43254071D024012142FBD0FF2415
:10094000AD19A4042D1B039501252D05DB02DB0A3F
:10095000C9022B43C90A29431E010901040F130FC1
:10096000050121431701880B820391432D098C4611
:10097000A90B1E438A039543B30B9A0396433F0981
:10098000BA0B9403A74302962E467E430497B646BD
:100990004E19D7190C460196544305977E43371BD1
:1009A0007646BF1B3601B646BE0B36190096764614
:1009B000BC043719009C01D3641C00946400002F10
:1009C00001D001263443029E049F754366467E4350
:1009D0000496760034196E0034190094029C019E2E
:1009E0001C196643751BAE46069465464519059C61
:1009F00005956C43594375460891691A0191049E07
:100A000001465143A41B0491611A009C0791E10621
:100A100005D061090122114302E072E06EE0610934
:100A2000089D00272C0A2D066918049D7C412A0A7E
:100A30002D066918019D6241AC0DAD026D1854413F
:100A4000079A910D920255196141029A64465843E2
:100A50005443069B059A5A43121A131B9A0E9B0184
:100A60005B187A41010B0005C3185141220A200688
:100A700044195A419A4200D2491C01204002814245
:100A800003D315230226F64302E014230326F6437C
:100A90002020C51AA9401746AF40DA400A43204635
:100AA0000399D8400914731819055118039A38434B
:100AB000D2075140AC4009D00122944006D3002215
:100AC000401C5141002C01D1400840001E4A934275
:100AD00012D3012203989206904207DB05204007BB
:100AE00009181A480143C012414004E0032040079E
:100AF0000818C10FC907002009B0F0BD0020F10798
:100B0000FAE705180C464C4111486D42A04115D337
:100B100094181A465A410E48644290410ED301205F
:100B20004A004005824209D35A00824206D3594006
:100B3000C90F084AC90700201143DDE70020064914
:100B4000DAE700000000FF07FE070000FFFFFF7F5D
:100B50000000E0FF0000F07F0000F87F10B5FF23E9
:100B60001B0644009C421DD84C009C421AD80346E8
:100B7000124A0B4307D4401A02D3EFF3008010BD92
:100B8000EFF3008010BD081A06D2EFF300800121B8
:100B90009043C907084302E0EFF30080904380F3DD
:100BA000008810BD0D231B041A4204D011460020FA
:100BB00000F006F810BD00F01BF810BD000000901A
:100BC000C80212D54803400F002804D0C803C04310
:100BD000012188407047EFF30080000100090321E4
:100BE0000907084380F30088704700207047000021
:100BF00010B5024800F02BF810BD00000000C07FC7
:100C0000754600F053F8AE46050069465346C008E5
:100C1000C000854618B020B5FFF7C2FA60BC0027B7
:100C20004908B6460026C0C5C0C5C0C5C0C5C0C5B8
:100C3000C0C5C0C5C0C5403D49008D46704710B510
:100C40000446C046C0462046FFF77DFA10BD10B5E9
:100C50000C461107090F092904D00A290AD00829CE
:100C60000CD104E011460820FFF7AAFF06E0510668
:100C700006D501E0510601D50120C007214610BD6F
:100C8000D10607D501010909CC084907000E000665
:100C9000044309E0410F20024907000A0143200EE6
:100CA00000061D22D14101430846E7E7004870478E
:100CB0001402002001491820ABBEFEE72600020006
:100CC0007047000010B5024800F085FA10BD000022
:100CD0003800002038B50446002500200090206828
:100CE00080688007800F01280ED120680068C00747
:100CF000C00F002806D12068C0680121C903084040
:100D0000884201D1012000E0002000284CD1206859
:100D1000806826490840002801D1012000E0002019
:100D2000002809D1A06B10210843A063E06B0121CA
:100D30000843E063012038BD206880680121084332
:100D4000216888601A491B480068FFF71DFB009066
:100D500002E00098401E009000980028F9D100F0B1
:100D600007FF054617E000F003FF401B022812D9D9
:100D700020680068C007C00F012148404840002893
:100D800009D1A06B10210843A063E06B0121084347
:100D9000E0630120CFE720680068C007C00F012191
:100DA000484048400028DED00020C4E717000080FB
:100DB00040420F002000002010B5024800F0DBFC8C
:100DC00010BD00007800002010B5034800F0D3FCEF
:100DD000024800F0D0FC10BDD00100208C010020A2
:100DE00010B50446054A2168881A1421FFF7CCFA89
:100DF0008000206401480838E06310BD080002400C
:100E000030B50124056CAC40C56B6C600468636050
:100E10004468102C04D10468A2600468E16003E017
:100E20000468A1600468E26030BD72B600BFFEE7EE
:100E300070B53948006839490968401AFF21F53111
:100E4000884214D336493748006802F041FF04460F
:100E500035493648006802F03BFF0546214602F05E
:100E6000C7FE324908602C4800682C4908603048A9
:100E70000078002804D0012816D0022845D139E096
:100E80002C492A48006802F0A7FF0446254801685B
:100E9000204602F075FF06D21F4800682649086008
:100EA00001202349087034E01B4800682249096882
:100EB000441A6E2C03D900201D49087019E01D4901
:100EC0001A48006802F088FF05461648016828465F
:100ED00002F0D4FE0DD8282C0BD318480088401CF3
:100EE000164908800C48006815490860022010491E
:100EF00008700EE00848006811490968401A142873
:100F000002D300200A49087003E000200849087055
:100F100000BF00BF70BD00000800002028000020B6
:100F2000CDCCCC3D000000206666663F240000204A
:100F300036000020CDCCCC3E2C0000203400002018
:100F400030000020F8B5044600250026002700BF29
:100F50003420005D012801D10220F8BD0121342098
:100F6000015500BF206880688007800F01280CD1E0
:100F7000206800680840002805D12068C068C903BF
:100F80000840884201D1012000E00020002849D11A
:100F9000A06BFF210131884302210843A063206830
:100FA000C0688707BF0F2068C0688008800021687C
:100FB000C860206880680121C907084321688860EB
:100FC00000F0D6FD064619E000F0D2FD801B022895
:100FD00014D920688068C00FC0070121C907884262
:100FE0000CD1A06B0221884310210843A06300BFED
:100FF00000213420015500BF0120AEE72068806841
:10100000C00FC0070121C9078842DDD02068C06831
:1010100038432168C860A06B02218843012108433E
:10102000A06304E0A06B20210843A063012500BF5A
:1010300000213420015500BF28468EE7F8B504464C
:101040000D4600260020009001210907E06A884231
:1010500015D0E06A012812D0E06A02280FD0E06AB9
:1010600003280CD0E06A042809D0E06A052806D0DD
:10107000E06A062803D0E06A072800D000BF00BF5E
:101080003420005D012801D10220F8BD0121342067
:10109000015500BF206880680421084080080028AE
:1010A0007BD14449686888425BD02068806A2A788E
:1010B0000121914008432168886201210907E06A03
:1010C000884229D0E06A012826D0E06A022823D08D
:1010D000E06A032820D0E06A04281DD0E06A0528D1
:1010E0001AD0E06A062817D0E06A072814D0A8684A
:1010F000216849694907490F88420DD02068406935
:10110000C008C0002168486120684069297A490701
:10111000490F0843216848612868102802D02868D0
:1011200011283FD1244880682968102901D1C904B9
:1011300001E00121890508431F49886028681028BB
:1011400030D11E491E480068FFF71EF90A214843A6
:10115000009002E00098401E009000980028F9D10D
:1011600020E02068806A2A78012191408843216824
:1011700088622868102802D02868112812D10E48E9
:1011800080682968102902D1C90402E005E0012124
:10119000890588430849886004E0A06B2021084342
:1011A000A063012600BF00213420015500BF304656
:1011B0006BE70000011000000027014040420F00D3
:1011C00020000020704770470146886B7047014639
:1011D0000868006C704770B5044620680568206890
:1011E000466804202840042802D13040042806D054
:1011F0000820284008283CD13040082839D1A06B6D
:1012000010210840002803D1A06B49010843A063C6
:101210002068C068032189020840002823D1A07EED
:10122000002820D10820284008281CD12068806888
:1012300004210840800800280DD1206840680C2156
:10124000884321684860A06BFF2101318843012158
:101250000843A06307E0A06B20210843A063E06B74
:1012600001210843E0632046FFF7ACFF0C20216812
:1012700008608020284080280DD1304080280AD185
:10128000A06B012109040843A063204600F004F983
:1012900080202168086010202840102818D1304094
:1012A000102815D1A06A012805D02068C068C007A1
:1012B000C00F002809D0E06B02210843E063102032
:1012C000216808602046FFF77EFF10202168086033
:1012D00070BD000070B5044600260025002C01D129
:1012E000012070BDA06B002806D1E06300213420EE
:1012F0000155204600F0D2F8A06B102108400028CC
:101300007ED1002EFCD1206880680421084080082E
:101310000028F5D1A06B8901884302210843A0630E
:10132000206880688007800F01280DD12068006840
:10133000C007C00F002805D12068C0688903084095
:10134000884201D1012000E0002000280FD1206850
:10135000C06818218843A16808432168C8602068D4
:10136000006980008008616808432168086120687E
:10137000C068474908402168C860207E8003617EBC
:10138000C9030843A17E49030843A16A012902D089
:101390000121090300E000210843E16808432169B5
:1013A000022901D1042100E0002108432421095D24
:1013B000490008430543E07E01280ED1A07E0028A5
:1013C00003D101200004054307E0A06B202108435E
:1013D000A063E06B01210843E063FF21C231E069B3
:1013E000884203D0216AE069084305432068C06849
:1013F00028432168C86001210907E06A884200E0AB
:101400003EE014D0E06A012811D0E06A02280ED034
:10141000E06A03280BD0E06A042808D0E06A0528B7
:1014200005D0E06A062802D0E06A07280DD12068BE
:101430004069C008C0002168486120684069A18DEA
:101440004907490F0843216848612068C06811496D
:101450000840A84208D10020E063A06B0221884325
:1014600001210843A06310E0A06B022188431021F2
:101470000843A063E06B01210843E063012604E018
:10148000A06B10210843A0630126304629E7000025
:101490001902FEFFE7FF3F837047000010B586B0DA
:1014A0000446142101A8FEF76DFF2A4920688842EE
:1014B0004DD100BF284880694915084326498861F5
:1014C0000846806949150840009000BF00BF00BF72
:1014D00021484069090208431F494861084640699C
:1014E000012149040840009000BF00BF0220019084
:1014F000032002900020039001A90920C00600F0FB
:101500002FFA164816490860002048600021144848
:1015100081608021C1604900016189004161002131
:10152000816103210903C16100F09EF9002801D007
:10153000FFF77BFC00BF0A482063446200BF002223
:1015400011460C2000F08EFB0C2000F07DFB06B055
:1015500010BD0000002401400010024008000240BD
:1015600078000020F8B504460D466069082801D1CE
:10157000082611E02068C068C007C00F00280AD004
:10158000A06B20210843A06300BF00213420015537
:1015900000BF0120F8BD0C2600F0EAFA074619E06A
:1015A000681C002816D0002D04D000F0E1FAC01B02
:1015B000A8420FD920680068304000280AD1A06BEB
:1015C00004210843A06300BF00213420015500BF5F
:1015D0000320DFE72068006830400028E0D0A06BDF
:1015E000012149020843A0632068C06803218902E1
:1015F0000840002825D1A07E002822D1206800685C
:101600000821084008281CD120688068042108406F
:10161000800800280DD1206840680C21884321688B
:101620004860A06BFF210131884301210843A0637A
:1016300007E0A06B20210843A063E06B0121084371
:10164000E063207E002802D10C2021680860002081
:10165000A0E7000070B504460025206880680421DA
:101660000840800800282BD100BF3420005D0128ED
:1016700001D1022070BD01213420015500BF607EE0
:10168000012803D02046FFF725FB0546002D18D181
:10169000A06B0D490840FF2101310843A0630020E1
:1016A000E06300BF00213420015500BF1C202168E9
:1016B000086020688068042108432168886000E091
:1016C00002252846D6E70000FEF1FFFF0146212053
:1016D000405C022808D00420886300BF002220203C
:1016E000425400BF01207047086800680E229043F2
:1016F0000A68106008680068400840000A681060C6
:1017000001200A6C9040CA6B506001222120425493
:1017100000BF00222020425400BF0020E3E770B544
:10172000044600252120005D022803D00420A06388
:1017300001251EE0206800680E21884321680860AA
:101740002068006840084000216808600120216C82
:101750008840E16B486001212120015500BF002134
:101760002020015500BF606B002802D02046616B2D
:101770008847284670BD70B50446E06B0568206850
:1017800006680420216C8840284000281BD00420D3
:101790003040002817D02068006820210840002829
:1017A00005D120680068042188432168086004206E
:1017B000216C8840E16B4860E06A002852D02046E6
:1017C000E16A88474EE00220216C884028400028CA
:1017D00023D00220304000281FD02068006820213C
:1017E0000840002808D1206800680A218843216841
:1017F00008600121212001550220216C8840E16B05
:10180000486000BF00212020015500BFA06A0028C9
:1018100028D02046A16A884724E00820216C88400F
:10182000284000281ED00820304000281AD0206808
:1018300000680E218843216808600120216C8840DF
:10184000E16B48600120A06301212120015500BF08
:1018500000212020015500BF206B002802D0204627
:10186000216B884770BD000070B504460025002C30
:1018700001D1012070BD0221212001552068056899
:101880000F480540A16860680843E1680843216982
:10189000084361690843A1690843E16908430543B6
:1018A000206805602046FFF79BFA0020A063012115
:1018B000212001550021202001550020DAE70000F9
:1018C0000FC0FFFFF8B504460D4616461F46002020
:1018D000009000BF2020005D012801D10220F8BD4A
:1018E00001212020015500BF2120005D01282DD1BC
:1018F0000221212001550020A063206800684008D3
:101900004000216808603B46324629462046FFF7E2
:1019100077FAE06A002806D0206800680E210843A4
:10192000216808600BE0206800680A2108432168EC
:1019300008602068006804218843216808602068E6
:101940000068012108432168086006E000BF00210B
:101950002020015500BF022000900098BFE7000042
:1019600078B503460A460021DFE001268E40146860
:101970003440002C7ED01579AD07AD0F012D04D079
:101980001579AD07AD0F022D18D198684E000325CB
:10199000B5400646AE4330464E00D568B5402843B4
:1019A0009860586801258D400646AE4330461026A3
:1019B000556835402D098D40284358601579AD078D
:1019C000AD0F032D0BD0D8684E000325B540064659
:1019D000AE4330464E009568B5402843D86015792F
:1019E000AD07AD0F022D15D1CD08AE001D46203537
:1019F000A8594D07EE0E0F25B5400646AE433046BA
:101A00004E07F60E1569B5402843CD08AD001E46B9
:101A10002036705118684E000325B5400646AE4387
:101A200030461579AD07AD0F4E00B540284318601C
:101A30000326360455683540002D75D000BF3E4D55
:101A4000AD69012635433C4EB5613546AD69ED07BC
:101A5000ED0F009500BF00BF384D8E08B600A859A5
:101A60008D072E0F0F25B5400646AE43304609259B
:101A7000ED0600E058E0AB4201D100250FE0304D0B
:101A8000AB4201D101250AE02E4DAB4201D1022526
:101A900005E02D4DAB4201D1032500E005258E0761
:101AA000360FB5402843254D8E08B600A851274D66
:101AB000A8680546A54328460126360555683540E1
:101AC000002D02D0054625432846204DA860E86831
:101AD0000546A54328460126760555683540002D64
:101AE00002D0054625432846184DE860686805463B
:101AF000A54328460126760455683540002D02D0BE
:101B0000054625432846114D686028680546A543CB
:101B100028460126360455683540002D02D005467A
:101B200025432846094D2860491C1568CD40002DE5
:101B300000D01AE778BD0000001002400800014004
:101B40000004004800080048000C00480004014060
:101B500010B5426913460B401B040C4694432343C3
:101B6000836110BD002A01D0816100E0816270476D
:101B70000148006870470000140000200348006816
:101B80000349097840180149086070471400002093
:101B90001C00002010B506480068102108430449C5
:101BA0000860032000F006F800F02EF8002010BDB9
:101BB0000020024070B50446104801787D20C00026
:101BC000FEF7E2FB064631460D480068FEF7DCFBF7
:101BD000054600F0D9FC002801D0012070BD042C7E
:101BE00007D200222146501E00F03CF80548046050
:101BF00001E00120F2E70020F0E700001C000020D7
:101C0000200000201800002008B500BF0D488069A2
:101C1000012108430B49886108468069C007C00F4D
:101C2000009000BF00BF00BF0846C0690904084318
:101C30000449C8610846C06909040840009000BF13
:101C400000BF08BD001002400146002905DBCB069D
:101C5000DB0E01229A40024B1A6000BF7047000061
:101C600000E100E070B504460D46164629462046C0
:101C700001F062FF70BD0000F8B5044600260025A3
:101C8000012109042068084088427AD100274B4886
:101C9000C0690903084000280DD100BF4748C0694A
:101CA00008434649C8610846C069090408400090D5
:101CB00000BF00BF012742480068FF2101310840F2
:101CC000002816D13E48006808433D490860FFF7E8
:101CD0004FFF064606E0FFF74BFF801B642801D943
:101CE0000320F8BD36480068FF2101310840002874
:101CF000F1D03248006A0321090208400546002D50
:101D00002DD060680840A84229D02C48006A88433A
:101D100005462A48006A0121090408432749086248
:101D20000846006A012109048843244908620846DC
:101D30000562E807C00F002811D0FFF719FF06461B
:101D400007E0FFF715FF801B1E49884201D90320D9
:101D5000C7E71A48006A022108400028F1D0174856
:101D6000006A032109028843616808431349086235
:101D7000012F05D10846C069090488430F49C8618D
:101D800000BF2078C007C00F002807D00B48006BA9
:101D900080088000A1680843084908632021206862
:101DA0000840202807D10548006B10218843E168CE
:101DB000084302490863002093E700000010024036
:101DC000007000408813000070B504460D46002CDA
:101DD00001D1012070BD52480068C007C00FA84261
:101DE0000ED24F4800684008400028434C49086024
:101DF00008460068C007C00FA84201D00120E9E7EB
:101E0000022120680840022814D1042120680840DB
:101E1000042807D143484068072109028843401835
:101E2000404948603F484068F0218843A168084322
:101E30003C4948602078C007C00F00283BD060684C
:101E4000012808D1374800680121490408400028CA
:101E500015D10120BEE76068022808D1314800682A
:101E6000012149060840002809D10120B2E72D4888
:101E7000006802210840002801D10120AAE7294872
:101E80004068800880006168084326494860FFF781
:101E90006FFE064607E0FFF76BFE801B2249884273
:101EA00001D9032096E71F4840680C21084061686B
:101EB00089008842EFD11A480068C007C00FA842C5
:101EC0000ED91748006840084000284314490860AC
:101ED00008460068C007C00FA84201D0012079E77A
:101EE000042120680840042808D10E4840680721D2
:101EF00009028843E16808430A49486000F032F863
:101F000008494968F02211400909084A515CC84053
:101F1000074908600320FFF74DFE00205AE7000044
:101F2000002002400010024088130000C83E000854
:101F300020000020014800687047000020000020B9
:101F400000B5FFF7F7FF0549496807221202114063
:101F5000090A034A515CC84000BD0000001002405D
:101F6000D83E0008F8B500240025002700260020F0
:101F700000901D4844680C20204000282DD00428E3
:101F800002D0082828D102E01848009028E00F204D
:101F900080042040800C16490E5C1348C06A00077C
:101FA000000F14490D5C01200004204001210904A8
:101FB00088420AD12A4600230C481946FEF702F946
:101FC000314601F0A1FD074604E00B48314601F01F
:101FD0009BFD0746009703E000BF0448009000BF48
:101FE00000BF0098F8BD00000010024000127A0007
:101FF000A83E0008B83E000800093D00FEB50446B2
:10200000002C01D10120FEBD2078C007C00F0028A0
:1020100071D0FC4840680C21084004280BD0F948D6
:1020200040680840082812D1F64840680121090498
:10203000084088420BD1F348006801214904084058
:1020400000286BD06068002868D10120DBE700BF62
:102050006068012807D1EB480068012109040843A2
:10206000E849086031E0606800280ED1E548006862
:10207000012109048843E3490860084600680121FA
:1020800089048843DF4908601FE0606805280ED195
:10209000DC480068012189040843DA4908600846E1
:1020A0000068012109040843D64908600DE0D548BD
:1020B0000068012109048843D24908600846006885
:1020C000012189048843CF49086000BF6068002867
:1020D00012D0FFF74DFD054606E0FFF749FD401B16
:1020E000642801D903208EE7C6480068012149040D
:1020F00008400028F1D011E0FFF73AFD054606E060
:10210000FFF736FD401B642801D903207BE7BD485B
:1021100000680121490408400028F1D1022120680B
:102120000840022861D1B74840680C2108400028C7
:102130000BD0B4484068084008281BD1B14840681B
:10214000012109040840002814D1AE48006802218A
:102150000840002804D0E068012801D0012052E79F
:10216000A8480068F82188432169C9000843A549A7
:1021700008603AE0E068002820D0A2480068012109
:102180000843A0490860FFF7F3FC054606E0FFF7A7
:10219000EFFC401B022801D9032034E7994800686E
:1021A000022108400028F2D096480068F8218843B0
:1021B0002169C90008439349086016E09148006806
:1021C000400840008F490860FFF7D2FC054606E052
:1021D000FFF7CEFC401B022801D9032013E78948F2
:1021E0000068022108400028F2D108212068084038
:1021F000082831D1E069002817D08248406A0121BF
:10220000084380494862FFF7B3FC054606E0FFF744
:10221000AFFC401B022801D90320F4E67948406A4C
:10222000022108400028F2D016E07648406A4008B3
:10223000400074494862FFF79BFC054606E0FFF743
:1022400097FC401B022801D90320DCE66D48406A58
:10225000022108400028F2D1042120680840042807
:1022600073D1002001906748C069890608400028A2
:102270000ED100BF6348C06908436249C86108467F
:10228000C06909040840009000BF00BF0120019010
:102290005D480068FF2101310840002816D15A48E6
:1022A0000068084358490860FFF762FC054606E0ED
:1022B000FFF75EFC401B642801D90320A3E65248C7
:1022C0000068FF21013108400028F1D000BFA0685C
:1022D000012806D14B48006A012108434949086298
:1022E0002BE0A06800280CD14648006A4008400056
:1022F000444908620846006A04218843414908624B
:102300001BE0A06805280CD13E48006A0421084360
:102310003C4908620846006A0121084339490862BD
:102320000BE03848006A4008400036490862084619
:10233000006A042188433349086200BFA06800286E
:1023400013D0FFF715FC054608E02BE0FFF710FC63
:10235000401B2E49884201D9032054E62948006ACF
:10236000022108400028F1D011E0FFF701FC0546EA
:1023700007E0FFF7FDFB401B2449884201D90320F9
:1023800041E62048006A022108400028F1D1019866
:10239000012806D11B48C069012109078843194952
:1023A000C86100BF102120680840102860D1606912
:1023B00001282DD11348406B04210843114948637B
:1023C0000846406B012108430E494863FFF7D0FBE4
:1023D000054606E0FFF7CCFB401B022801D903208D
:1023E00011E60848406B022108400028F2D0054859
:1023F000406BF8218843A169C9000843014948633B
:1024000036E0000000100240007000408813000019
:102410006069401D00280FD15A48406B0421884351
:10242000584948630846406BF8218843A169C900B0
:102430000843544948631BE05248406B0421084359
:10244000504948630846406B400840004863FFF726
:102450008FFB054606E0FFF78BFB401B022801D9E6
:102460000320D0E54748406B022108400028F2D104
:10247000206A00284FD0434840680C2108400828B3
:1024800064D0206A022847D13E480068012109062D
:1024900088433C490860FFF76BFB054606E0FFF701
:1024A00067FB401B022801D90320ACE535480068D2
:1024B0000121490608400028F1D100BF3148C06A17
:1024C00000090001E16A08432E49C862616AA06AF6
:1024D00008432C4949683D22120491430843294985
:1024E000486000BF084600680121090608432549E5
:1024F0000860FFF73DFB054606E0FFF739FB401B90
:10250000022801D903207EE51E4800680121490602
:1025100008400028F1D033E01A480068012109067C
:10252000884318490860FFF723FB054606E0FFF7DC
:102530001FFB401B022801D9032064E511480068F5
:102540000121490608400028F1D119E0206A01283C
:1025500000D158E50B484668C76A012000043040A6
:10256000616A88420AD13907090FE06A814205D1C0
:102570000F2080043040A16A884201D0012042E54A
:10258000002040E50010024070B504462546681E54
:102590000949884201D901200CE0681E07494861B9
:1025A0000321081F01F0C8FA0020044988610720B0
:1025B0000861002070BD0000FFFFFF0000E000E0A8
:1025C0007047704730B502460B4600BF3C20805C28
:1025D000012801D1022030BD01253C20855400BFD7
:1025E00002253D2085541068446810688168702574
:1025F0002046A843044618680443106844600D4D03
:102600001068A84203D00C4D1068A84207D180255D
:102610000846A843014658680143106881600125B7
:102620003D20855400BF00253C20855400BF00207C
:10263000D1E70000002C01400004004010B5044622
:10264000002C01D1012010BD3D20005D002805D1E6
:1026500000213C200155204600F022F802213D20B7
:102660000155211D206800F09BFE012146200155E7
:1026700000BF3E2001553F2001554020015541201B
:10268000015500BF00BF42200155432001554420A1
:1026900001554520015500BF3D2001550020D2E7DE
:1026A00038B504460D492068884215D100BF0C4852
:1026B0008069C91408430A49886108468069C914B9
:1026C0000840009000BF00BF002211460D20FFF718
:1026D000C9FA0D20FFF7B8FA38BD0000002C014000
:1026E0000010024001463D20405C012801D001203D
:1026F000704702233D2043540868C06801231843F3
:102700000B68D8600E4B0868984203D00D4B0868E0
:1027100098420CD1086880684207520F062A0CD0F4
:1027200008680068012318430B68186005E0086812
:102730000068012318430B6818600020D8E70000E8
:10274000002C014000040040F8B504460D4600206E
:10275000009000BF3C20005D012801D10220F8BD9F
:1027600001213C20015500BF02213D200155206878
:1027700086687721304688430646FF2109023046A5
:1027800088430646206886602868502834D00CDCD0
:10279000202851D004DC00284CD0102852D14AE027
:1027A00030284AD040284DD13AE060282ED07028F9
:1027B00007D001210903401A02D0401A42D10DE08E
:1027C00043E0EB686A68A968206800F039FE206879
:1027D0008668772006432068866036E0EB686A6882
:1027E000A968206800F02CFE206880680121890318
:1027F00008432168886028E0EA686968206800F07A
:1028000039FE5021206800F029FE1EE0EA68696860
:10281000206800F048FE6021206800F01FFE14E0F0
:10282000EA686968206800F025FE4021206800F011
:1028300015FE0AE000BF00BF00BF2968206800F055
:102840000DFE02E00120009000BF00BF01213D20ED
:10285000015500BF00213C20015500BF00987EE7D4
:10286000704770B504462068C56820680669022074
:102870003040022819D12840022816D1401F216873
:10288000086101202077206880698007800F002878
:1028900003D02046FFF7E4FF05E0204600F098F85B
:1028A000204600F096F800202077042030400428CD
:1028B0001AD12840042817D1C0432168086102209A
:1028C000207720688069032109020840002803D08E
:1028D0002046FFF7C5FF05E0204600F079F82046C6
:1028E00000F077F80020207708203040082819D120
:1028F0002840082816D1C0432168086104202077A9
:102900002068C0698007800F002803D02046FFF7A9
:10291000A7FF05E0204600F05BF8204600F059F8DC
:10292000002020771020304010281AD1284010288D
:1029300017D1C04321680861082020772068C0694A
:10294000032109020840002803D02046FFF788FF32
:1029500005E0204600F03CF8204600F03AF8002060
:102960002077F007C00F00280AD0E807C00F002822
:1029700006D00120C04321680861204600F02AF8F3
:1029800080203040802808D12840802805D1C043CD
:10299000216808612046FFF713FE402030404028A0
:1029A00008D12840402805D1C0432168086120464D
:1029B00000F078F820203040202808D12840202836
:1029C00005D1C043216808612046FFF7FAFD70BDBC
:1029D000704770477FB506462849306888424BD11A
:1029E00027480068401C2649086008460078C00750
:1029F000C00F00282ED12348FEF72CFE322121489B
:102A0000FEF7B0FD1F48FEF7DFFB01214902084039
:102A1000884219D11B48FEF7DAFB1B49088008469B
:102A20000088FDF774FF0446184A194BFDF772FF42
:102A3000184A194B01910090FDF710FF0391029085
:102A4000FDF752FD15490860FEF7F2F90121134820
:102A500001F03CF87D21C90009480068FDF794FCAD
:102A6000002909D110210920C006FFF771F80122C1
:102A700002210B48FFF776F87FBD0000002C0140D3
:102A80000800002038000020040000200E32C9C8D1
:102A900059D8733F2D431CEBE2365A3F000000200B
:102AA000000400487047704770470000F0B585B0DB
:102AB00004462068C5692068066820688768E3487E
:102AC00028400390039800280FD120202840002898
:102AD0000BD020203040002807D0A06E002802D064
:102AE0002046A16E884705B0F0BD039800287DD030
:102AF000F807C00F002803D1D54830400028F6D091
:102B0000E807C00F00280DD0FF200130304000281A
:102B100008D001202168086284200059012108435F
:102B2000842108510220284000280CD0F807C00F4B
:102B3000002808D00220216808628420005904215E
:102B40000843842108510420284000280CD0F807AD
:102B5000C00F002808D00420216808628420005992
:102B6000022108438421085108202840002810D061
:102B700020203040002803D1F807C00F002808D0DB
:102B80000820216808628420005908210843842114
:102B900008510120C002284000280ED001208006E4
:102BA0003040002809D00120C0022168086284203A
:102BB000005920210843842108518420005900280D
:102BC00054D020202840002809D020203040002860
:102BD00005D0A06E002802D02046A16E8847842030
:102BE0000059029020688068402100E03FE00840E2
:102BF000402804D0282102980840002830D02046E0
:102C000000F0D0FD2068806840210840402823D192
:102C100000BF00F0CDFF0190012000F0CCFF206844
:102C200080684021884321688860019800F0C3FFD4
:102C300000BF606F00280BD08648616F4863606FEB
:102C4000FEF76DFD002811D0606F416B88470DE0E5
:102C50002046FFF729FF09E02046FFF725FF05E0A2
:102C60002046FFF721FF0021842001513BE7206E21
:102C700001287DD110202840002879D01020304034
:102C80000028FAD01020216808622068806840215E
:102C9000084040286ED1606F0068406880B20190A3
:102CA0000198002863D05820015B019881425EDDC5
:102CB0005A2101980853606F806920284CD000BFCA
:102CC00000F076FF0090012000F075FF206800689A
:102CD000FF210131884321680860009800F06BFFF4
:102CE00000BF00BF00F064FF0090012000F063FF10
:102CF000206880684008400021688860009800F0E3
:102D00005AFF00BF00BF00F053FF0090012000F009
:102D100052FF2068806840218843216888600098BD
:102D200000F049FF00BF20218020015100202066D3
:102D300000BF00F03DFF0090012000F03CFF206844
:102D400000681021884321680860009800F033FF74
:102D500000BF606FFEF7BAFC022060665820025B7D
:102D60005A20005B101A81B22046FFF79CFEBAE69B
:102D70004FE0FFE75820015B5A20005B081A80B241
:102D800001905A20005B002842D0019800283FD0D3
:102D900000BF00F00DFF0090012000F00CFF206844
:102DA0000068FF212131884321680860009800F005
:102DB00002FF00BF00BF00F0FBFE0090012000F00A
:102DC000FAFE20688068400840002168886000980A
:102DD00000F0F1FE00BF202180200151002020667C
:102DE000A06600BF00F0E4FE0090012000F0E3FECA
:102DF000206800681021884321680860009800F06E
:102E0000DAFE00BF0220606620460199FFF74BFE04
:102E100069E68020284000280AD080203040002821
:102E200006D0E06E002802D02046E16E88475AE6C0
:102E300040202840002807D040203040002803D000
:102E4000204600F0EFFC4EE600BF4CE60F08000005
:102E500020010004C936000810B50446002C01D139
:102E6000012010BDA069002800D000E000BFE06F85
:102E7000002805D1002178200155204600F02CF8CB
:102E80002420E0672068006840084000216808604E
:102E9000606A002802D0204600F01EFB204600F0A9
:102EA000F3FC012800D1DCE7206840680121C90259
:102EB0008843216848602068806808218843216829
:102EC0008860206800680121084321680860204666
:102ED00000F07AFBC5E7000010B586B00446142167
:102EE00001A8FDF74FFA3B49206888426FD100BF27
:102EF00039488069012189030843374988610846B8
:102F00008069012189030840009000BF00BF00BF15
:102F100031484069C90008432F4948610846406963
:102F2000012149040840009000BF00BF0320400277
:102F300001900220029000200390032004900120C1
:102F4000059001A90920C006FEF70AFD234824497F
:102F50000860002048600021214881608021C16014
:102F6000002101614161816101210903C161FEF715
:102F70007BFC002801D0FDF758FF00BF18486067B0
:102F8000446200BF15481438164908601020486094
:102F90000021144881608021C160002101614161EC
:102FA000816101210903C161FEF75EFC002801D0A7
:102FB000FDF73BFF00BF0B482067446200BF0022C3
:102FC00011461B20FEF74EFE1B20FEF73DFE06B00D
:102FD00010BD0000003801400010024030000240E7
:102FE0008C010020D0010020F8B504460E4615469D
:102FF000E06F202853D1002E01D0002D01D10120F7
:10300000F8BD01210903A068884208D12069002881
:1030100005D1F007C00F002801D00120F0E7E664D9
:1030200050200553522005530021842001512120B6
:10303000E067206F00281CD01A48216F88621A4868
:10304000216FC8621948216F08630020216F48630F
:1030500023681A4628322B46E16C206FFEF732FCBB
:10306000002806D01021842001512020E067012093
:10307000C6E740202168086200BF00F099FD0746BE
:10308000012000F098FD20688068802108432168B5
:103090008860384600F08FFD00BF0020B0E70220B6
:1030A000AEE700003937000897370008E13600081E
:1030B0007047704700BFFEE70EB5002000900190FA
:1030C00002901948194908600020486000211748FB
:1030D0008160C1600121016104214161002101760B
:1030E0004176012181760021C176FF21C231C16183
:1030F0000021016224300170012124388162FEF731
:10310000E9F8002801D0FDF790FE012000900003AF
:1031100001900004029069460448FDF78FFF0028E3
:1031200001D0FDF782FE0EBD0024014038000020D2
:1031300008B500BF0E484069012108430C494861A9
:1031400008464069C007C00F009000BF00BF0022C2
:1031500011460920FEF786FD0920FEF775FD0022C5
:1031600011460A20FEF77EFD0A20FEF76DFD08BD20
:103170000010024000B587B0142102A8FDF702F943
:1031800000BF2D4840690121890508432A4948614B
:1031900008464069012189050840019000BF00BF31
:1031A00000BF254840694911084323494861084642
:1031B0004069012149040840019000BF00BF00BFE1
:1031C0001D484069490008431B4948610846406959
:1031D000012189040840019000BF00BF0022102196
:1031E0000920C006FEF7BEFC002202211348FEF7AC
:1031F000B9FC0C20029000200390049002A9092041
:10320000C006FEF7ADFB10200290012003900020C5
:103210000490059002A90920C006FEF7A1FB022038
:1032200002900120039000200490059002A9034819
:10323000FEF796FB07B000BD0010024000040048F6
:1032400000B587B00020039004900590069001908F
:103250000290174817490860FF20E03048600021BD
:10326000144881600921C160002101614161802110
:103270008161FFF7E3F9002801D0FDF7D6FD0120B9
:103280000003039003A90B48FFF75EFA002801D062
:10329000FDF7CBFD00200190029001A90548FFF742
:1032A00091F9002801D0FDF7C0FD07B000BD000076
:1032B000002C0140BC00002010B50E480E490860EB
:1032C000E1208002486000210B488160C1600161FB
:1032D0000C21416100218161C16101620020064928
:1032E00048620846FFF7B8FD002801D0FDF79DFDB4
:1032F00010BD0000003801400401002000BFFEE7BF
:103300007047704710B5FEF739FC10BD00B595B099
:10331000302109A8FDF736F80020059006900790A7
:1033200008900190029003900490112009900120D0
:103330000A900E9010200F9002201190C10312915C
:10334000C10413910021149109A8FEF757FE00282B
:1033500001D0FDF76AFD07200590022006900020AD
:1033600007900890012105A8FEF72EFD002801D046
:10337000FDF75BFD01200190039001A8FEF77CFCA6
:10338000002801D0FDF751FD15B000BD70470000C9
:1033900010B50248FFF765FA10BD0000BC00002020
:1033A00010B50268214B984202D0214B984205D1BA
:1033B00070241346A3431A464B681A431B4B98428A
:1033C0000BD01B4B984208D01A4B984205D01A4B91
:1033D000984202D0194B984206D103242402134686
:1033E000A3431A46CB681A4380241346A3434C696F
:1033F00023431A4602608B68C3620B6883620B4BDF
:10340000984205D00C4B984202D00C4B984201D107
:103410000B690363012343610369DB07DB0F002BA7
:1034200003D003695B085B00036110BD002C014001
:1034300000040040002000400044014000480140DA
:1034400070B50C468168FF2636020D46B543294605
:103450001D02154325432943816070BD10B50A46FE
:10346000816870240B46A34319460723134319436D
:10347000816010BD70B50B461446026A056A6D087E
:103480006D0005628169F0260D46B5432946250188
:1034900029430A261546B5432A4615461D432A46A2
:1034A0008161026270BD70B50B461446026A056AFE
:1034B0001026B543056281690F2636030D46B543D4
:1034C000294625032943A0261546B5432A461D0152
:1034D0002A438161026270BD0822416A11400829B5
:1034E00007D10168496812039143426B1143026896
:1034F0005160818CC907C90F002908D0016849684B
:10350000012252049143826A1143026851600222EF
:10351000416A1140022907D101684968D2039143E9
:10352000C26A1143026851600422416A11400429B1
:1035300007D10168496812049143026B1143026884
:1035400051601022416A1140102907D10168896831
:1035500012029143826B1143026891602022416AFA
:103560001140202907D10168896812029143C26B7A
:103570001143026891604022416A1140402915D1EF
:103580000168496892039143026C114302685160DB
:1035900001221205016C914208D101684968032299
:1035A00052059143426C1143026851608022416A86
:1035B0001140802907D10168496812039143826C48
:1035C0001143026851607047F8B504460021842019
:1035D0000151FEF7CDFA0546206800680821084031
:1035E000082823D137482B46002289040090204622
:1035F00000F00AFA002819D000BF00F0D9FA0646F8
:10360000012000F0D8FA20680068802188432168F2
:103610000860304600F0CFFA00BF2020E06700BF0E
:1036200000217820015500BF0320F8BD2068006804
:1036300004210840042836D122482B4600220905DF
:103640000090204600F0E0F900282CD000BF00F0E8
:10365000AFFA0646012000F0AEFA20680068FF21AC
:103660002131884321680860304600F0A4FA00BF89
:1036700000BF00F09DFA0646012000F09CFA206889
:1036800080684008400021688860304600F093FA66
:1036900000BF20218020015100BF0021782001556A
:1036A00000BF0320C1E72020E067202180200151D6
:1036B00000202066606600BF00217820015500BF11
:1036C0000020B2E7FFFFFF0170B505466C6A0021DC
:1036D0005A200153522001532046FFF7E5F970BDEF
:1036E000F8B505466C6AE66F802007592068806847
:1036F00080210840802807D1212E05D100215220A9
:103700000153204600F0A9F8206880684021084055
:10371000402807D1222F05D100215A2001532046ED
:1037200000F040F8842000591021084384210851FA
:103730002046FFF7B9F9F8BD70B505466C6AA8696F
:10374000202824D000215220015300BF00F030FA7D
:103750000646012000F02FFA206880688021884307
:1037600021688860304600F026FA00BF00BF00F0F4
:103770001FFA0646012000F01EFA2068006840216A
:10378000084321680860304600F015FA02E0204640
:10379000FFF78EFC70BD70B50446656A2846FFF7DA
:1037A00088FC70BD70B5044600BF00F001FA054604
:1037B000012000F000FA20680068FF2121318843D1
:1037C00021680860284600F0F6F900BF00BF00F04D
:1037D000EFF90546012000F0EEF920688068400806
:1037E000400021688860284600F0E5F900BF206E9F
:1037F000012810D100BF00F0DBF90546012000F0E0
:10380000DAF920680068102188432168086028469A
:1038100000F0D1F900BF2021802001510020206656
:10382000A06670BD70B5044600BF00F0C1F9054642
:10383000012000F0C0F92068006840218843216819
:103840000860284600F0B7F900BF2020E06700209C
:10385000E0662046FFF72CFC70BD70B5044600BF43
:1038600000F0A6F90546012000F0A5F920680068DF
:10387000C021884321680860284600F09CF900BFF9
:103880002020E06770BD0000FEB5044600200090D7
:103890002169A068084361690843E169084302900F
:1038A000206800685449084002990843216808606C
:1038B00020684068032109038843E16808432168C0
:1038C0004860A0690290206A02990843029020682B
:1038D00080680B21090288430299084321688860A7
:1038E00000BF4648006B8007800F002806D00128E3
:1038F00008D0022808D0032808D101E0002707E0FB
:10390000022705E0042703E0082701E0102700BF95
:1039100000BF00BF0121C903E069884239D1002FEF
:1039200006D0022F08D0042F08D0082F0DD109E0AF
:10393000FEF706FB05460CE0314D0AE0FEF712FBF0
:10394000054606E00125ED0303E000250120009077
:1039500000BF00BF002D4AD06A0063685B08D01822
:103960006168FCF711FD0646102E0FD325488642EC
:103970000CD824480F38304001903007400F01998F
:103980000843019001982168C86030E00120009050
:103990002DE0002F06D0022F08D0042F08D0082FCA
:1039A0000DD109E0FEF7CCFA05460CE0144D0AE013
:1039B000FEF7D8FA054606E00125ED0303E00025F1
:1039C0000120009000BF00BF002D10D061684A08A0
:1039D0005019FCF7D9FC0646102E06D3094886423A
:1039E00003D8B0B22168C86001E001200090002037
:1039F000A066E0660098FEBDF369FFFF001002407C
:103A000000127A00FFFF0000FFB581B004460D46AA
:103A100017460A9E46E0701C002843D0FEF7A8F81F
:103A20000499401AB04201D8002E02D1032005B0FB
:103A3000F0BD2068006804210840002832D0802DA5
:103A400030D0402D2ED02068C06908210840C00821
:103A500000280FD00820216808622046FFF7A2FE48
:103A600008218420015100BF00217820015500BFAA
:103A70000120DCE72068C0690121C9020840C00AB2
:103A800000280FD00846216808622046FFF78AFE0A
:103A900020218420015100BF00217820015500BF62
:103AA0000320C4E72068C0692840A84201D1012052
:103AB00000E00020B842AED00020B8E710B50248C0
:103AC000FEF7F4FF10BD000004010020FEB506461D
:103AD0000C46A006050E281DC7B22A463146684688
:103AE000FCF738FB6946481904220549FCF7EBFB53
:103AF000601C820069460348FFF776FAFEBD0000AD
:103B0000E03E000804010020F8B582B28BB2040C3C
:103B10000D0C10465843002126465E43370C3604F0
:103B20008019794116466E43370C36048019794165
:103B300026466E438919F8BD10B5002819DB1A4ACC
:103B400003231B02D21883089B00D2588307DC0E84
:103B5000FF23A3409A438B071B0E8407E40EA34068
:103B60001A43114B032424021B198408A4001A5180
:103B700018E00E4A03071B0F083B9B089B00D25816
:103B80008307DC0EFF23A3409A438B071B0E840799
:103B9000E40EA3401A43054B0407240F083CA40875
:103BA000A4001A5110BD000000E100E01CED00E08F
:103BB000EFF31080704780F310887047FDF7EAFF3D
:103BC000FFF7A4FBFFF7D6FAFFF7B2FAFFF774FA94
:103BD000FFF772FBFFF734FB0348FDF7B3F9034827
:103BE000FEF780FD00BFFEE738000020BC0000208B
:103BF00070B501250400ED074C4020D4441A01D2D1
:103C0000001B0919C60D4B00F2B2FF2A29D01B0E6A
:103C10002CD000020C02D31A2C43DC402843051997
:103C200010D2280A02D3401C6D0611D0761EF6056C
:103C30008019FF2A00DA70BDC00DC00570BD694053
:103C400000F0D0F801200543C541521C761CE8E77E
:103C500064089C40C90161408900E7D10124A04368
:103C6000E4E71B0E440200D0034870BD002AFCD1DB
:103C7000C00FC00770BD00BF0000C07F012302005D
:103C8000DB050A430DD4DA4203D49A4207D48842B2
:103C90007047D84214D4D94212D488427047804227
:103CA0007047DA4203D59A42F9D5814270475B00EA
:103CB0004200DA4204D24A00DA4201D2814270471D
:103CC00010B5024AFCF74AFF10BD00BF09001604F8
:103CD00070B5420064414B005C41120E39D01B0E9E
:103CE00038D0FF2A3CD0FF2B3AD040024902400A8C
:103CF000490A060045184E43000A090AD2184843EB
:103D0000ED017F3A0104731A4019190C4318990FF9
:103D100004D001215B0849075B1A521CD80904D35F
:103D2000401CF50301D19D0607D0FF2A08D2D50516
:103D300006D0E4072043401970BD0125A843F4E7ED
:103D4000002A01DCE00770BD2402FF202043C005EB
:103D500070BD1B0EFF2A03D0FF2B01D0E00770BD02
:103D6000FF2645003606B54206D84D00B54203D8B9
:103D7000D218FF2A00D0E7E7004870BD0000C07FDE
:103D800001230A00DB0502430DD4DA4203D49A4230
:103D900007D481427047D94214D4D84212D4814208
:103DA000704789427047DA4203D59A42F9D5884272
:103DB00070475B004A00DA4204D24200DA4201D284
:103DC000884270474840414010B5024A4840FCF7DD
:103DD000C5FE10BD0900160470B501250400ED07ED
:103DE0004C4022D4441A02D26C40001B0919C60D63
:103DF0004B00F2B2FF2A4BD01B0E50D000020C0237
:103E0000D31A2C43DC40A843051B05D5AD0019D3BC
:103E10006D08761E521E37D0F605280A01D2801989
:103E200070BD70416D0603D070BD6940FFF7E6FEBE
:103E30009C4009026140490001D0401E70BD012430
:103E4000A04370BD6D081DD001202B0C01D12D04A5
:103E500010302B0E01D12D0208302B0F01D12D0176
:103E6000001DAB0F01D1AD00801CEB0F01D16D0027
:103E7000401C6D00361A121A680AF5054019012A0D
:103E800002DB70BD002070BDC036300AC00770BDB7
:103E90001B0E440201D1FF2B00D1024870BD002A45
:103EA000F0D070BD0000C07F0203040506070809BA
:103EB0000A0B0C0D0E0F1010010203040506070873
:103EC000090A0B0C0D0E0F1000000000000000008E
:103ED00001020304060708090000000001020304B0
:103EE0000000807F043F0008000000203800000030
:103EF000F40000083C3F00083800002040080000A3
:103F00001001000800000000000000000000000098
:103F1000000000000000000000000000040000009D
:103F20000100000000127A000000B0400000000014
:0C3F300000000000000000000000000085
:04000005080000B13E
:00000001FF
